{
  "_format": "hh-sol-artifact-1",
  "contractName": "MyEpicGame",
  "sourceName": "contracts/MyEpicGame.sol",
  "abi": [
    {
      "inputs": [
        {
          "internalType": "string[]",
          "name": "characterNames",
          "type": "string[]"
        },
        {
          "internalType": "string[]",
          "name": "characterImageURIs",
          "type": "string[]"
        },
        {
          "internalType": "uint256[]",
          "name": "characterHp",
          "type": "uint256[]"
        },
        {
          "internalType": "uint256[]",
          "name": "characterAttackDmg",
          "type": "uint256[]"
        },
        {
          "internalType": "bool[]",
          "name": "animateds",
          "type": "bool[]"
        },
        {
          "internalType": "string",
          "name": "bossName",
          "type": "string"
        },
        {
          "internalType": "string",
          "name": "bossImageURI",
          "type": "string"
        },
        {
          "internalType": "uint256",
          "name": "bossHp",
          "type": "uint256"
        },
        {
          "internalType": "uint256",
          "name": "bossAttackDamage",
          "type": "uint256"
        }
      ],
      "stateMutability": "nonpayable",
      "type": "constructor"
    },
    {
      "anonymous": false,
      "inputs": [
        {
          "indexed": true,
          "internalType": "address",
          "name": "owner",
          "type": "address"
        },
        {
          "indexed": true,
          "internalType": "address",
          "name": "approved",
          "type": "address"
        },
        {
          "indexed": true,
          "internalType": "uint256",
          "name": "tokenId",
          "type": "uint256"
        }
      ],
      "name": "Approval",
      "type": "event"
    },
    {
      "anonymous": false,
      "inputs": [
        {
          "indexed": true,
          "internalType": "address",
          "name": "owner",
          "type": "address"
        },
        {
          "indexed": true,
          "internalType": "address",
          "name": "operator",
          "type": "address"
        },
        {
          "indexed": false,
          "internalType": "bool",
          "name": "approved",
          "type": "bool"
        }
      ],
      "name": "ApprovalForAll",
      "type": "event"
    },
    {
      "anonymous": false,
      "inputs": [
        {
          "indexed": false,
          "internalType": "uint256",
          "name": "newBossHp",
          "type": "uint256"
        },
        {
          "indexed": false,
          "internalType": "uint256",
          "name": "newPlayerHp",
          "type": "uint256"
        }
      ],
      "name": "AttackComplete",
      "type": "event"
    },
    {
      "anonymous": false,
      "inputs": [
        {
          "indexed": false,
          "internalType": "address",
          "name": "sender",
          "type": "address"
        },
        {
          "indexed": false,
          "internalType": "uint256",
          "name": "tokenId",
          "type": "uint256"
        },
        {
          "indexed": false,
          "internalType": "uint256",
          "name": "characterIndex",
          "type": "uint256"
        }
      ],
      "name": "CharacterNFTMinted",
      "type": "event"
    },
    {
      "anonymous": false,
      "inputs": [
        {
          "indexed": true,
          "internalType": "address",
          "name": "from",
          "type": "address"
        },
        {
          "indexed": true,
          "internalType": "address",
          "name": "to",
          "type": "address"
        },
        {
          "indexed": true,
          "internalType": "uint256",
          "name": "tokenId",
          "type": "uint256"
        }
      ],
      "name": "Transfer",
      "type": "event"
    },
    {
      "inputs": [
        {
          "internalType": "address",
          "name": "to",
          "type": "address"
        },
        {
          "internalType": "uint256",
          "name": "tokenId",
          "type": "uint256"
        }
      ],
      "name": "approve",
      "outputs": [],
      "stateMutability": "nonpayable",
      "type": "function"
    },
    {
      "inputs": [],
      "name": "attackTheBoss",
      "outputs": [],
      "stateMutability": "nonpayable",
      "type": "function"
    },
    {
      "inputs": [
        {
          "internalType": "address",
          "name": "owner",
          "type": "address"
        }
      ],
      "name": "balanceOf",
      "outputs": [
        {
          "internalType": "uint256",
          "name": "",
          "type": "uint256"
        }
      ],
      "stateMutability": "view",
      "type": "function"
    },
    {
      "inputs": [],
      "name": "bigBoss",
      "outputs": [
        {
          "internalType": "string",
          "name": "name",
          "type": "string"
        },
        {
          "internalType": "string",
          "name": "imageURI",
          "type": "string"
        },
        {
          "internalType": "uint256",
          "name": "hp",
          "type": "uint256"
        },
        {
          "internalType": "uint256",
          "name": "maxHp",
          "type": "uint256"
        },
        {
          "internalType": "uint256",
          "name": "attackDamage",
          "type": "uint256"
        }
      ],
      "stateMutability": "view",
      "type": "function"
    },
    {
      "inputs": [],
      "name": "checkIfUserHasNFT",
      "outputs": [
        {
          "components": [
            {
              "internalType": "uint256",
              "name": "characterIndex",
              "type": "uint256"
            },
            {
              "internalType": "string",
              "name": "name",
              "type": "string"
            },
            {
              "internalType": "string",
              "name": "imageURI",
              "type": "string"
            },
            {
              "internalType": "uint256",
              "name": "hp",
              "type": "uint256"
            },
            {
              "internalType": "uint256",
              "name": "maxHp",
              "type": "uint256"
            },
            {
              "internalType": "uint256",
              "name": "attackDamage",
              "type": "uint256"
            },
            {
              "internalType": "bool",
              "name": "animated",
              "type": "bool"
            }
          ],
          "internalType": "struct MyEpicGame.CharacterAttributes",
          "name": "",
          "type": "tuple"
        }
      ],
      "stateMutability": "view",
      "type": "function"
    },
    {
      "inputs": [],
      "name": "getAllDefaultCharacters",
      "outputs": [
        {
          "components": [
            {
              "internalType": "uint256",
              "name": "characterIndex",
              "type": "uint256"
            },
            {
              "internalType": "string",
              "name": "name",
              "type": "string"
            },
            {
              "internalType": "string",
              "name": "imageURI",
              "type": "string"
            },
            {
              "internalType": "uint256",
              "name": "hp",
              "type": "uint256"
            },
            {
              "internalType": "uint256",
              "name": "maxHp",
              "type": "uint256"
            },
            {
              "internalType": "uint256",
              "name": "attackDamage",
              "type": "uint256"
            },
            {
              "internalType": "bool",
              "name": "animated",
              "type": "bool"
            }
          ],
          "internalType": "struct MyEpicGame.CharacterAttributes[]",
          "name": "",
          "type": "tuple[]"
        }
      ],
      "stateMutability": "view",
      "type": "function"
    },
    {
      "inputs": [
        {
          "internalType": "uint256",
          "name": "tokenId",
          "type": "uint256"
        }
      ],
      "name": "getApproved",
      "outputs": [
        {
          "internalType": "address",
          "name": "",
          "type": "address"
        }
      ],
      "stateMutability": "view",
      "type": "function"
    },
    {
      "inputs": [],
      "name": "getBigBoss",
      "outputs": [
        {
          "components": [
            {
              "internalType": "string",
              "name": "name",
              "type": "string"
            },
            {
              "internalType": "string",
              "name": "imageURI",
              "type": "string"
            },
            {
              "internalType": "uint256",
              "name": "hp",
              "type": "uint256"
            },
            {
              "internalType": "uint256",
              "name": "maxHp",
              "type": "uint256"
            },
            {
              "internalType": "uint256",
              "name": "attackDamage",
              "type": "uint256"
            }
          ],
          "internalType": "struct MyEpicGame.BigBoss",
          "name": "",
          "type": "tuple"
        }
      ],
      "stateMutability": "view",
      "type": "function"
    },
    {
      "inputs": [
        {
          "internalType": "address",
          "name": "owner",
          "type": "address"
        },
        {
          "internalType": "address",
          "name": "operator",
          "type": "address"
        }
      ],
      "name": "isApprovedForAll",
      "outputs": [
        {
          "internalType": "bool",
          "name": "",
          "type": "bool"
        }
      ],
      "stateMutability": "view",
      "type": "function"
    },
    {
      "inputs": [
        {
          "internalType": "uint256",
          "name": "_characterIndex",
          "type": "uint256"
        }
      ],
      "name": "mintCharacterNFT",
      "outputs": [],
      "stateMutability": "nonpayable",
      "type": "function"
    },
    {
      "inputs": [],
      "name": "name",
      "outputs": [
        {
          "internalType": "string",
          "name": "",
          "type": "string"
        }
      ],
      "stateMutability": "view",
      "type": "function"
    },
    {
      "inputs": [
        {
          "internalType": "uint256",
          "name": "",
          "type": "uint256"
        }
      ],
      "name": "nftHolderAttributes",
      "outputs": [
        {
          "internalType": "uint256",
          "name": "characterIndex",
          "type": "uint256"
        },
        {
          "internalType": "string",
          "name": "name",
          "type": "string"
        },
        {
          "internalType": "string",
          "name": "imageURI",
          "type": "string"
        },
        {
          "internalType": "uint256",
          "name": "hp",
          "type": "uint256"
        },
        {
          "internalType": "uint256",
          "name": "maxHp",
          "type": "uint256"
        },
        {
          "internalType": "uint256",
          "name": "attackDamage",
          "type": "uint256"
        },
        {
          "internalType": "bool",
          "name": "animated",
          "type": "bool"
        }
      ],
      "stateMutability": "view",
      "type": "function"
    },
    {
      "inputs": [
        {
          "internalType": "address",
          "name": "",
          "type": "address"
        }
      ],
      "name": "nftHolders",
      "outputs": [
        {
          "internalType": "uint256",
          "name": "",
          "type": "uint256"
        }
      ],
      "stateMutability": "view",
      "type": "function"
    },
    {
      "inputs": [
        {
          "internalType": "uint256",
          "name": "tokenId",
          "type": "uint256"
        }
      ],
      "name": "ownerOf",
      "outputs": [
        {
          "internalType": "address",
          "name": "",
          "type": "address"
        }
      ],
      "stateMutability": "view",
      "type": "function"
    },
    {
      "inputs": [
        {
          "internalType": "address",
          "name": "from",
          "type": "address"
        },
        {
          "internalType": "address",
          "name": "to",
          "type": "address"
        },
        {
          "internalType": "uint256",
          "name": "tokenId",
          "type": "uint256"
        }
      ],
      "name": "safeTransferFrom",
      "outputs": [],
      "stateMutability": "nonpayable",
      "type": "function"
    },
    {
      "inputs": [
        {
          "internalType": "address",
          "name": "from",
          "type": "address"
        },
        {
          "internalType": "address",
          "name": "to",
          "type": "address"
        },
        {
          "internalType": "uint256",
          "name": "tokenId",
          "type": "uint256"
        },
        {
          "internalType": "bytes",
          "name": "_data",
          "type": "bytes"
        }
      ],
      "name": "safeTransferFrom",
      "outputs": [],
      "stateMutability": "nonpayable",
      "type": "function"
    },
    {
      "inputs": [
        {
          "internalType": "address",
          "name": "operator",
          "type": "address"
        },
        {
          "internalType": "bool",
          "name": "approved",
          "type": "bool"
        }
      ],
      "name": "setApprovalForAll",
      "outputs": [],
      "stateMutability": "nonpayable",
      "type": "function"
    },
    {
      "inputs": [
        {
          "internalType": "bytes4",
          "name": "interfaceId",
          "type": "bytes4"
        }
      ],
      "name": "supportsInterface",
      "outputs": [
        {
          "internalType": "bool",
          "name": "",
          "type": "bool"
        }
      ],
      "stateMutability": "view",
      "type": "function"
    },
    {
      "inputs": [],
      "name": "symbol",
      "outputs": [
        {
          "internalType": "string",
          "name": "",
          "type": "string"
        }
      ],
      "stateMutability": "view",
      "type": "function"
    },
    {
      "inputs": [
        {
          "internalType": "uint256",
          "name": "_tokenId",
          "type": "uint256"
        }
      ],
      "name": "tokenURI",
      "outputs": [
        {
          "internalType": "string",
          "name": "",
          "type": "string"
        }
      ],
      "stateMutability": "view",
      "type": "function"
    },
    {
      "inputs": [
        {
          "internalType": "address",
          "name": "from",
          "type": "address"
        },
        {
          "internalType": "address",
          "name": "to",
          "type": "address"
        },
        {
          "internalType": "uint256",
          "name": "tokenId",
          "type": "uint256"
        }
      ],
      "name": "transferFrom",
      "outputs": [],
      "stateMutability": "nonpayable",
      "type": "function"
    }
  ],
  "bytecode": "0x60806040523480156200001157600080fd5b5060405162005bc338038062005bc3833981810160405281019062000037919062000b98565b6040518060400160405280600481526020017f45636b73000000000000000000000000000000000000000000000000000000008152506040518060400160405280600381526020017f45434b00000000000000000000000000000000000000000000000000000000008152508160009080519060200190620000bb92919062000872565b508060019080519060200190620000d492919062000872565b5050506040518060a0016040528085815260200184815260200183815260200183815260200182815250600960008201518160000190805190602001906200011e92919062000872565b5060208201518160010190805190602001906200013d92919062000872565b50604082015181600201556060820151816003015560808201518160040155905050620002c06040518060600160405280602a815260200162005b99602a9139600960000180546200018f9062000f8d565b80601f0160208091040260200160405190810160405280929190818152602001828054620001bd9062000f8d565b80156200020e5780601f10620001e2576101008083540402835291602001916200020e565b820191906000526020600020905b815481529060010190602001808311620001f057829003601f168201915b5050505050600960020154600960010180546200022b9062000f8d565b80601f0160208091040260200160405190810160405280929190818152602001828054620002599062000f8d565b8015620002aa5780601f106200027e57610100808354040283529160200191620002aa565b820191906000526020600020905b8154815290600101906020018083116200028c57829003601f168201915b50505050506200078760201b62001d7a1760201c565b60005b8951811015620007605760076040518060e001604052808381526020018c84815181106200031a577f4e487b7100000000000000000000000000000000000000000000000000000000600052603260045260246000fd5b602002602001015181526020018b848151811062000361577f4e487b7100000000000000000000000000000000000000000000000000000000600052603260045260246000fd5b602002602001015181526020018a8481518110620003a8577f4e487b7100000000000000000000000000000000000000000000000000000000600052603260045260246000fd5b602002602001015181526020018a8481518110620003ef577f4e487b7100000000000000000000000000000000000000000000000000000000600052603260045260246000fd5b6020026020010151815260200189848151811062000436577f4e487b7100000000000000000000000000000000000000000000000000000000600052603260045260246000fd5b602002602001015181526020018884815181106200047d577f4e487b7100000000000000000000000000000000000000000000000000000000600052603260045260246000fd5b602002602001015115158152509080600181540180825580915050600190039060005260206000209060070201600090919091909150600082015181600001556020820151816001019080519060200190620004db92919062000872565b506040820151816002019080519060200190620004fa92919062000872565b50606082015181600301556080820151816004015560a0820151816005015560c08201518160060160006101000a81548160ff021916908315150217905550505060006007828154811062000578577f4e487b7100000000000000000000000000000000000000000000000000000000600052603260045260246000fd5b90600052602060002090600702016040518060e001604052908160008201548152602001600182018054620005ad9062000f8d565b80601f0160208091040260200160405190810160405280929190818152602001828054620005db9062000f8d565b80156200062c5780601f1062000600576101008083540402835291602001916200062c565b820191906000526020600020905b8154815290600101906020018083116200060e57829003601f168201915b50505050508152602001600282018054620006479062000f8d565b80601f0160208091040260200160405190810160405280929190818152602001828054620006759062000f8d565b8015620006c65780601f106200069a57610100808354040283529160200191620006c6565b820191906000526020600020905b815481529060010190602001808311620006a857829003601f168201915b505050505081526020016003820154815260200160048201548152602001600582015481526020016006820160009054906101000a900460ff16151515158152505090506200074860405180606001604052806025815260200162005b74602591398260200151836060015184604001516200078760201b62001d7a1760201c565b5060018162000758919062000ee4565b9050620002c3565b506200077860066200083360201b62001e1c1760201c565b50505050505050505062001095565b6200082d84848484604051602401620007a4949392919062000d72565b6040516020818303038152906040527f8d142cdd000000000000000000000000000000000000000000000000000000007bffffffffffffffffffffffffffffffffffffffffffffffffffffffff19166020820180517bffffffffffffffffffffffffffffffffffffffffffffffffffffffff83818316178352505050506200084960201b60201c565b50505050565b6001816000016000828254019250508190555050565b60008151905060006a636f6e736f6c652e6c6f679050602083016000808483855afa5050505050565b828054620008809062000f8d565b90600052602060002090601f016020900481019282620008a45760008555620008f0565b82601f10620008bf57805160ff1916838001178555620008f0565b82800160010185558215620008f0579182015b82811115620008ef578251825591602001919060010190620008d2565b5b509050620008ff919062000903565b5090565b5b808211156200091e57600081600090555060010162000904565b5090565b600062000939620009338462000e08565b62000dd4565b905080838252602082019050828560208602820111156200095957600080fd5b60005b858110156200098d578162000972888262000b3d565b8452602084019350602083019250506001810190506200095c565b5050509392505050565b6000620009ae620009a88462000e37565b62000dd4565b9050808382526020820190508260005b85811015620009f25781518501620009d7888262000b54565b845260208401935060208301925050600181019050620009be565b5050509392505050565b600062000a1362000a0d8462000e66565b62000dd4565b9050808382526020820190508285602086028201111562000a3357600080fd5b60005b8581101562000a67578162000a4c888262000b81565b84526020840193506020830192505060018101905062000a36565b5050509392505050565b600062000a8862000a828462000e95565b62000dd4565b90508281526020810184848401111562000aa157600080fd5b62000aae84828562000f57565b509392505050565b600082601f83011262000ac857600080fd5b815162000ada84826020860162000922565b91505092915050565b600082601f83011262000af557600080fd5b815162000b0784826020860162000997565b91505092915050565b600082601f83011262000b2257600080fd5b815162000b34848260208601620009fc565b91505092915050565b60008151905062000b4e8162001061565b92915050565b600082601f83011262000b6657600080fd5b815162000b7884826020860162000a71565b91505092915050565b60008151905062000b92816200107b565b92915050565b60008060008060008060008060006101208a8c03121562000bb857600080fd5b60008a015167ffffffffffffffff81111562000bd357600080fd5b62000be18c828d0162000ae3565b99505060208a015167ffffffffffffffff81111562000bff57600080fd5b62000c0d8c828d0162000ae3565b98505060408a015167ffffffffffffffff81111562000c2b57600080fd5b62000c398c828d0162000b10565b97505060608a015167ffffffffffffffff81111562000c5757600080fd5b62000c658c828d0162000b10565b96505060808a015167ffffffffffffffff81111562000c8357600080fd5b62000c918c828d0162000ab6565b95505060a08a015167ffffffffffffffff81111562000caf57600080fd5b62000cbd8c828d0162000b54565b94505060c08a015167ffffffffffffffff81111562000cdb57600080fd5b62000ce98c828d0162000b54565b93505060e062000cfc8c828d0162000b81565b92505061010062000d108c828d0162000b81565b9150509295985092959850929598565b600062000d2d8262000ec8565b62000d39818562000ed3565b935062000d4b81856020860162000f57565b62000d568162001050565b840191505092915050565b62000d6c8162000f4d565b82525050565b6000608082019050818103600083015262000d8e818762000d20565b9050818103602083015262000da4818662000d20565b905062000db5604083018562000d61565b818103606083015262000dc9818462000d20565b905095945050505050565b6000604051905081810181811067ffffffffffffffff8211171562000dfe5762000dfd62001021565b5b8060405250919050565b600067ffffffffffffffff82111562000e265762000e2562001021565b5b602082029050602081019050919050565b600067ffffffffffffffff82111562000e555762000e5462001021565b5b602082029050602081019050919050565b600067ffffffffffffffff82111562000e845762000e8362001021565b5b602082029050602081019050919050565b600067ffffffffffffffff82111562000eb35762000eb262001021565b5b601f19601f8301169050602081019050919050565b600081519050919050565b600082825260208201905092915050565b600062000ef18262000f4d565b915062000efe8362000f4d565b9250827fffffffffffffffffffffffffffffffffffffffffffffffffffffffffffffffff0382111562000f365762000f3562000fc3565b5b828201905092915050565b60008115159050919050565b6000819050919050565b60005b8381101562000f7757808201518184015260208101905062000f5a565b8381111562000f87576000848401525b50505050565b6000600282049050600182168062000fa657607f821691505b6020821081141562000fbd5762000fbc62000ff2565b5b50919050565b7f4e487b7100000000000000000000000000000000000000000000000000000000600052601160045260246000fd5b7f4e487b7100000000000000000000000000000000000000000000000000000000600052602260045260246000fd5b7f4e487b7100000000000000000000000000000000000000000000000000000000600052604160045260246000fd5b6000601f19601f8301169050919050565b6200106c8162000f41565b81146200107857600080fd5b50565b620010868162000f4d565b81146200109257600080fd5b50565b614acf80620010a56000396000f3fe608060405234801561001057600080fd5b50600436106101375760003560e01c80637df124a1116100b8578063b88d4fde1161007c578063b88d4fde14610358578063b953084e14610374578063c87b56dd14610392578063c8cf27f4146103c2578063e985e9c5146103e0578063f8b81ef71461041057610137565b80637df124a11461029657806395d89b41146102c657806398da4c95146102e4578063a22cb4651461031a578063a9c326791461033657610137565b806323b872dd116100ff57806323b872dd146101f457806342842e0e146102105780635c8c8b671461022c5780636352211e1461023657806370a082311461026657610137565b806301ffc9a71461013c5780630665f9611461016c57806306fdde031461018a578063081812fc146101a8578063095ea7b3146101d8575b600080fd5b61015660048036038101906101519190613263565b61042c565b6040516101639190614076565b60405180910390f35b61017461050e565b604051610181919061440f565b60405180910390f35b61019261066a565b60405161019f9190614091565b60405180910390f35b6101c260048036038101906101bd91906132b5565b6106fc565b6040516101cf9190613fb6565b60405180910390f35b6101f260048036038101906101ed9190613227565b610781565b005b61020e60048036038101906102099190613121565b610899565b005b61022a60048036038101906102259190613121565b6108f9565b005b610234610919565b005b610250600480360381019061024b91906132b5565b610ce2565b60405161025d9190613fb6565b60405180910390f35b610280600480360381019061027b91906130bc565b610d94565b60405161028d9190614453565b60405180910390f35b6102b060048036038101906102ab91906130bc565b610e4c565b6040516102bd9190614453565b60405180910390f35b6102ce610e64565b6040516102db9190614091565b60405180910390f35b6102fe60048036038101906102f991906132b5565b610ef6565b604051610311979695949392919061446e565b60405180910390f35b610334600480360381019061032f91906131eb565b611055565b005b61033e61106b565b60405161034f959493929190614160565b60405180910390f35b610372600480360381019061036d9190613170565b61119f565b005b61037c611201565b6040516103899190614054565b60405180910390f35b6103ac60048036038101906103a791906132b5565b6113c7565b6040516103b99190614091565b60405180910390f35b6103ca61167f565b6040516103d79190614431565b60405180910390f35b6103fa60048036038101906103f591906130e5565b611872565b6040516104079190614076565b60405180910390f35b61042a600480360381019061042591906132b5565b611906565b005b60007f80ac58cd000000000000000000000000000000000000000000000000000000007bffffffffffffffffffffffffffffffffffffffffffffffffffffffff1916827bffffffffffffffffffffffffffffffffffffffffffffffffffffffff191614806104f757507f5b5e139f000000000000000000000000000000000000000000000000000000007bffffffffffffffffffffffffffffffffffffffffffffffffffffffff1916827bffffffffffffffffffffffffffffffffffffffffffffffffffffffff1916145b80610507575061050682611e32565b5b9050919050565b610516612eda565b60096040518060a0016040529081600082018054610533906147cd565b80601f016020809104026020016040519081016040528092919081815260200182805461055f906147cd565b80156105ac5780601f10610581576101008083540402835291602001916105ac565b820191906000526020600020905b81548152906001019060200180831161058f57829003601f168201915b505050505081526020016001820180546105c5906147cd565b80601f01602080910402602001604051908101604052809291908181526020018280546105f1906147cd565b801561063e5780601f106106135761010080835404028352916020019161063e565b820191906000526020600020905b81548152906001019060200180831161062157829003601f168201915b505050505081526020016002820154815260200160038201548152602001600482015481525050905090565b606060008054610679906147cd565b80601f01602080910402602001604051908101604052809291908181526020018280546106a5906147cd565b80156106f25780601f106106c7576101008083540402835291602001916106f2565b820191906000526020600020905b8154815290600101906020018083116106d557829003601f168201915b5050505050905090565b600061070782611e9c565b610746576040517f08c379a000000000000000000000000000000000000000000000000000000000815260040161073d9061438f565b60405180910390fd5b6004600083815260200190815260200160002060009054906101000a900473ffffffffffffffffffffffffffffffffffffffff169050919050565b600061078c82610ce2565b90508073ffffffffffffffffffffffffffffffffffffffff168373ffffffffffffffffffffffffffffffffffffffff1614156107fd576040517f08c379a00000000000000000000000000000000000000000000000000000000081526004016107f4906143cf565b60405180910390fd5b8073ffffffffffffffffffffffffffffffffffffffff1661081c611f08565b73ffffffffffffffffffffffffffffffffffffffff16148061084b575061084a81610845611f08565b611872565b5b61088a576040517f08c379a0000000000000000000000000000000000000000000000000000000008152600401610881906142ef565b60405180910390fd5b6108948383611f10565b505050565b6108aa6108a4611f08565b82611fc9565b6108e9576040517f08c379a00000000000000000000000000000000000000000000000000000000081526004016108e0906143ef565b60405180910390fd5b6108f48383836120a7565b505050565b6109148383836040518060200160405280600081525061119f565b505050565b6109576040518060400160405280601581526020017f456e746572696e672061747461636b426f737328290000000000000000000000815250612303565b6000600e60003373ffffffffffffffffffffffffffffffffffffffff1673ffffffffffffffffffffffffffffffffffffffff1681526020019081526020016000205490506000600860008381526020019081526020016000209050610a6a6040518060600160405280603c8152602001614a5e603c91398260010180546109dd906147cd565b80601f0160208091040260200160405190810160405280929190818152602001828054610a09906147cd565b8015610a565780601f10610a2b57610100808354040283529160200191610a56565b820191906000526020600020905b815481529060010190602001808311610a3957829003601f168201915b50505050508360030154846005015461239c565b610b426040518060400160405280601b81526020017f426f73732025732068617320257320485020616e64202573204144000000000081525060096000018054610ab3906147cd565b80601f0160208091040260200160405190810160405280929190818152602001828054610adf906147cd565b8015610b2c5780601f10610b0157610100808354040283529160200191610b2c565b820191906000526020600020905b815481529060010190602001808311610b0f57829003601f168201915b505050505060096002015460096004015461239c565b6000816003015411610b89576040517f08c379a0000000000000000000000000000000000000000000000000000000008152600401610b809061434f565b60405180910390fd5b600060096002015411610bd1576040517f08c379a0000000000000000000000000000000000000000000000000000000008152600401610bc89061424f565b60405180910390fd5b80600501546009600201541015610bf2576000600960020181905550610c11565b8060050154600960020154610c0791906146e3565b6009600201819055505b60096004015481600301541015610c315760008160030181905550610c4f565b6009600401548160030154610c4691906146e3565b81600301819055505b610c766040518060600160405280602581526020016149a36025913960096002015461243e565b610c9c604051806060016040528060288152602001614a0860289139826003015461243e565b7f838ab28464562786a6c4ab2311964b82fa60bd9b14aa7e856af1f3f18d41a4146009600201548260030154604051610cd69291906144eb565b60405180910390a15050565b6000806002600084815260200190815260200160002060009054906101000a900473ffffffffffffffffffffffffffffffffffffffff169050600073ffffffffffffffffffffffffffffffffffffffff168173ffffffffffffffffffffffffffffffffffffffff161415610d8b576040517f08c379a0000000000000000000000000000000000000000000000000000000008152600401610d829061432f565b60405180910390fd5b80915050919050565b60008073ffffffffffffffffffffffffffffffffffffffff168273ffffffffffffffffffffffffffffffffffffffff161415610e05576040517f08c379a0000000000000000000000000000000000000000000000000000000008152600401610dfc9061430f565b60405180910390fd5b600360008373ffffffffffffffffffffffffffffffffffffffff1673ffffffffffffffffffffffffffffffffffffffff168152602001908152602001600020549050919050565b600e6020528060005260406000206000915090505481565b606060018054610e73906147cd565b80601f0160208091040260200160405190810160405280929190818152602001828054610e9f906147cd565b8015610eec5780601f10610ec157610100808354040283529160200191610eec565b820191906000526020600020905b815481529060010190602001808311610ecf57829003601f168201915b5050505050905090565b6008602052806000526040600020600091509050806000015490806001018054610f1f906147cd565b80601f0160208091040260200160405190810160405280929190818152602001828054610f4b906147cd565b8015610f985780601f10610f6d57610100808354040283529160200191610f98565b820191906000526020600020905b815481529060010190602001808311610f7b57829003601f168201915b505050505090806002018054610fad906147cd565b80601f0160208091040260200160405190810160405280929190818152602001828054610fd9906147cd565b80156110265780601f10610ffb57610100808354040283529160200191611026565b820191906000526020600020905b81548152906001019060200180831161100957829003601f168201915b5050505050908060030154908060040154908060050154908060060160009054906101000a900460ff16905087565b611067611060611f08565b83836124da565b5050565b600980600001805461107c906147cd565b80601f01602080910402602001604051908101604052809291908181526020018280546110a8906147cd565b80156110f55780601f106110ca576101008083540402835291602001916110f5565b820191906000526020600020905b8154815290600101906020018083116110d857829003601f168201915b50505050509080600101805461110a906147cd565b80601f0160208091040260200160405190810160405280929190818152602001828054611136906147cd565b80156111835780601f1061115857610100808354040283529160200191611183565b820191906000526020600020905b81548152906001019060200180831161116657829003601f168201915b5050505050908060020154908060030154908060040154905085565b6111b06111aa611f08565b83611fc9565b6111ef576040517f08c379a00000000000000000000000000000000000000000000000000000000081526004016111e6906143ef565b60405180910390fd5b6111fb84848484612647565b50505050565b60606007805480602002602001604051908101604052809291908181526020016000905b828210156113be57838290600052602060002090600702016040518060e001604052908160008201548152602001600182018054611262906147cd565b80601f016020809104026020016040519081016040528092919081815260200182805461128e906147cd565b80156112db5780601f106112b0576101008083540402835291602001916112db565b820191906000526020600020905b8154815290600101906020018083116112be57829003601f168201915b505050505081526020016002820180546112f4906147cd565b80601f0160208091040260200160405190810160405280929190818152602001828054611320906147cd565b801561136d5780601f106113425761010080835404028352916020019161136d565b820191906000526020600020905b81548152906001019060200180831161135057829003601f168201915b505050505081526020016003820154815260200160048201548152602001600582015481526020016006820160009054906101000a900460ff16151515158152505081526020019060010190611225565b50505050905090565b60606000600860008481526020019081526020016000206040518060e001604052908160008201548152602001600182018054611403906147cd565b80601f016020809104026020016040519081016040528092919081815260200182805461142f906147cd565b801561147c5780601f106114515761010080835404028352916020019161147c565b820191906000526020600020905b81548152906001019060200180831161145f57829003601f168201915b50505050508152602001600282018054611495906147cd565b80601f01602080910402602001604051908101604052809291908181526020018280546114c1906147cd565b801561150e5780601f106114e35761010080835404028352916020019161150e565b820191906000526020600020905b8154815290600101906020018083116114f157829003601f168201915b505050505081526020016003820154815260200160048201548152602001600582015481526020016006820160009054906101000a900460ff1615151515815250509050600061156182606001516126a3565b9050600061157283608001516126a3565b905060006115838460a001516126a3565b905060008460c001516115cb576040518060400160405280600181526020017f3000000000000000000000000000000000000000000000000000000000000000815250611602565b6040518060400160405280600181526020017f31000000000000000000000000000000000000000000000000000000000000008152505b9050600061164a86602001516116178a6126a3565b8860400151888888886040516020016116369796959493929190613ed7565b604051602081830303815290604052612850565b905060008160405160200161165f9190613f94565b604051602081830303815290604052905080975050505050505050919050565b611687612f09565b6000600e60003373ffffffffffffffffffffffffffffffffffffffff1673ffffffffffffffffffffffffffffffffffffffff168152602001908152602001600020549050600081111561186157600860008281526020019081526020016000206040518060e00160405290816000820154815260200160018201805461170c906147cd565b80601f0160208091040260200160405190810160405280929190818152602001828054611738906147cd565b80156117855780601f1061175a57610100808354040283529160200191611785565b820191906000526020600020905b81548152906001019060200180831161176857829003601f168201915b5050505050815260200160028201805461179e906147cd565b80601f01602080910402602001604051908101604052809291908181526020018280546117ca906147cd565b80156118175780601f106117ec57610100808354040283529160200191611817565b820191906000526020600020905b8154815290600101906020018083116117fa57829003601f168201915b505050505081526020016003820154815260200160048201548152602001600582015481526020016006820160009054906101000a900460ff16151515158152505091505061186f565b611869612f09565b80925050505b90565b6000600560008473ffffffffffffffffffffffffffffffffffffffff1673ffffffffffffffffffffffffffffffffffffffff16815260200190815260200160002060008373ffffffffffffffffffffffffffffffffffffffff1673ffffffffffffffffffffffffffffffffffffffff16815260200190815260200160002060009054906101000a900460ff16905092915050565b60006119126006612a0e565b905061191e3382612a1c565b6040518060e0016040528083815260200160078481548110611969577f4e487b7100000000000000000000000000000000000000000000000000000000600052603260045260246000fd5b90600052602060002090600702016001018054611985906147cd565b80601f01602080910402602001604051908101604052809291908181526020018280546119b1906147cd565b80156119fe5780601f106119d3576101008083540402835291602001916119fe565b820191906000526020600020905b8154815290600101906020018083116119e157829003601f168201915b5050505050815260200160078481548110611a42577f4e487b7100000000000000000000000000000000000000000000000000000000600052603260045260246000fd5b90600052602060002090600702016002018054611a5e906147cd565b80601f0160208091040260200160405190810160405280929190818152602001828054611a8a906147cd565b8015611ad75780601f10611aac57610100808354040283529160200191611ad7565b820191906000526020600020905b815481529060010190602001808311611aba57829003601f168201915b5050505050815260200160078481548110611b1b577f4e487b7100000000000000000000000000000000000000000000000000000000600052603260045260246000fd5b906000526020600020906007020160030154815260200160078481548110611b6c577f4e487b7100000000000000000000000000000000000000000000000000000000600052603260045260246000fd5b906000526020600020906007020160040154815260200160078481548110611bbd577f4e487b7100000000000000000000000000000000000000000000000000000000600052603260045260246000fd5b906000526020600020906007020160050154815260200160078481548110611c0e577f4e487b7100000000000000000000000000000000000000000000000000000000600052603260045260246000fd5b906000526020600020906007020160060160009054906101000a900460ff16151581525060086000838152602001908152602001600020600082015181600001556020820151816001019080519060200190611c6b929190612f48565b506040820151816002019080519060200190611c88929190612f48565b50606082015181600301556080820151816004015560a0820151816005015560c08201518160060160006101000a81548160ff021916908315150217905550905050611ced6040518060600160405280602e8152602001614a30602e91398284612a3a565b80600e60003373ffffffffffffffffffffffffffffffffffffffff1673ffffffffffffffffffffffffffffffffffffffff16815260200190815260200160002081905550611d3b6006611e1c565b7f4bc303fd457a97b4691b9af582ce71868a3d258638c8d4f8c60988a0f0bfb8cd338284604051611d6e9392919061401d565b60405180910390a15050565b611e1684848484604051602401611d9494939291906140b3565b6040516020818303038152906040527f8d142cdd000000000000000000000000000000000000000000000000000000007bffffffffffffffffffffffffffffffffffffffffffffffffffffffff19166020820180517bffffffffffffffffffffffffffffffffffffffffffffffffffffffff8381831617835250505050612ad9565b50505050565b6001816000016000828254019250508190555050565b60007f01ffc9a7000000000000000000000000000000000000000000000000000000007bffffffffffffffffffffffffffffffffffffffffffffffffffffffff1916827bffffffffffffffffffffffffffffffffffffffffffffffffffffffff1916149050919050565b60008073ffffffffffffffffffffffffffffffffffffffff166002600084815260200190815260200160002060009054906101000a900473ffffffffffffffffffffffffffffffffffffffff1673ffffffffffffffffffffffffffffffffffffffff1614159050919050565b600033905090565b816004600083815260200190815260200160002060006101000a81548173ffffffffffffffffffffffffffffffffffffffff021916908373ffffffffffffffffffffffffffffffffffffffff160217905550808273ffffffffffffffffffffffffffffffffffffffff16611f8383610ce2565b73ffffffffffffffffffffffffffffffffffffffff167f8c5be1e5ebec7d5bd14f71427d1e84f3dd0314c0f7b2291e5b200ac8c7c3b92560405160405180910390a45050565b6000611fd482611e9c565b612013576040517f08c379a000000000000000000000000000000000000000000000000000000000815260040161200a906142cf565b60405180910390fd5b600061201e83610ce2565b90508073ffffffffffffffffffffffffffffffffffffffff168473ffffffffffffffffffffffffffffffffffffffff16148061208d57508373ffffffffffffffffffffffffffffffffffffffff16612075846106fc565b73ffffffffffffffffffffffffffffffffffffffff16145b8061209e575061209d8185611872565b5b91505092915050565b8273ffffffffffffffffffffffffffffffffffffffff166120c782610ce2565b73ffffffffffffffffffffffffffffffffffffffff161461211d576040517f08c379a0000000000000000000000000000000000000000000000000000000008152600401612114906143af565b60405180910390fd5b600073ffffffffffffffffffffffffffffffffffffffff168273ffffffffffffffffffffffffffffffffffffffff16141561218d576040517f08c379a00000000000000000000000000000000000000000000000000000000081526004016121849061428f565b60405180910390fd5b612198838383612b02565b6121a3600082611f10565b6001600360008573ffffffffffffffffffffffffffffffffffffffff1673ffffffffffffffffffffffffffffffffffffffff16815260200190815260200160002060008282546121f391906146e3565b925050819055506001600360008473ffffffffffffffffffffffffffffffffffffffff1673ffffffffffffffffffffffffffffffffffffffff168152602001908152602001600020600082825461224a9190614602565b92505081905550816002600083815260200190815260200160002060006101000a81548173ffffffffffffffffffffffffffffffffffffffff021916908373ffffffffffffffffffffffffffffffffffffffff160217905550808273ffffffffffffffffffffffffffffffffffffffff168473ffffffffffffffffffffffffffffffffffffffff167fddf252ad1be2c89b69c2b068fc378daa952ba7f163c4a11628f55a4df523b3ef60405160405180910390a4505050565b612399816040516024016123179190614091565b6040516020818303038152906040527f41304fac000000000000000000000000000000000000000000000000000000007bffffffffffffffffffffffffffffffffffffffffffffffffffffffff19166020820180517bffffffffffffffffffffffffffffffffffffffffffffffffffffffff8381831617835250505050612ad9565b50565b612438848484846040516024016123b6949392919061410d565b6040516020818303038152906040527fd5cf17d0000000000000000000000000000000000000000000000000000000007bffffffffffffffffffffffffffffffffffffffffffffffffffffffff19166020820180517bffffffffffffffffffffffffffffffffffffffffffffffffffffffff8381831617835250505050612ad9565b50505050565b6124d682826040516024016124549291906141c1565b6040516020818303038152906040527f9710a9d0000000000000000000000000000000000000000000000000000000007bffffffffffffffffffffffffffffffffffffffffffffffffffffffff19166020820180517bffffffffffffffffffffffffffffffffffffffffffffffffffffffff8381831617835250505050612ad9565b5050565b8173ffffffffffffffffffffffffffffffffffffffff168373ffffffffffffffffffffffffffffffffffffffff161415612549576040517f08c379a0000000000000000000000000000000000000000000000000000000008152600401612540906142af565b60405180910390fd5b80600560008573ffffffffffffffffffffffffffffffffffffffff1673ffffffffffffffffffffffffffffffffffffffff16815260200190815260200160002060008473ffffffffffffffffffffffffffffffffffffffff1673ffffffffffffffffffffffffffffffffffffffff16815260200190815260200160002060006101000a81548160ff0219169083151502179055508173ffffffffffffffffffffffffffffffffffffffff168373ffffffffffffffffffffffffffffffffffffffff167f17307eab39ab6107e8899845ad3d59bd9653f200f220920489ca2b5937696c318360405161263a9190614076565b60405180910390a3505050565b6126528484846120a7565b61265e84848484612b07565b61269d576040517f08c379a00000000000000000000000000000000000000000000000000000000081526004016126949061422f565b60405180910390fd5b50505050565b606060008214156126eb576040518060400160405280600181526020017f3000000000000000000000000000000000000000000000000000000000000000815250905061284b565b600082905060005b6000821461271d578080612706906147ff565b915050600a826127169190614658565b91506126f3565b60008167ffffffffffffffff81111561275f577f4e487b7100000000000000000000000000000000000000000000000000000000600052604160045260246000fd5b6040519080825280601f01601f1916602001820160405280156127915781602001600182028036833780820191505090505b5090505b60008514612844576001826127aa91906146e3565b9150600a856127b99190614848565b60306127c59190614602565b60f81b818381518110612801577f4e487b7100000000000000000000000000000000000000000000000000000000600052603260045260246000fd5b60200101907effffffffffffffffffffffffffffffffffffffffffffffffffffffffffffff1916908160001a905350600a8561283d9190614658565b9450612795565b8093505050505b919050565b606060008251905060008114156128795760405180602001604052806000815250915050612a09565b6000600360028361288a9190614602565b6128949190614658565b60046128a09190614689565b905060006020826128b19190614602565b67ffffffffffffffff8111156128f0577f4e487b7100000000000000000000000000000000000000000000000000000000600052604160045260246000fd5b6040519080825280601f01601f1916602001820160405280156129225781602001600182028036833780820191505090505b50905060006040518060600160405280604081526020016149c8604091399050600181016020830160005b868110156129c65760038101905062ffffff818a015116603f8160121c168401518060081b905060ff603f83600c1c1686015116810190508060081b905060ff603f8360061c1686015116810190508060081b905060ff603f831686015116810190508060e01b9050808452600484019350505061294d565b5060038606600181146129e057600281146129f0576129fb565b613d3d60f01b60028303526129fb565b603d60f81b60018303525b508484525050819450505050505b919050565b600081600001549050919050565b612a36828260405180602001604052806000815250612c9e565b5050565b612ad4838383604051602401612a52939291906141f1565b6040516020818303038152906040527f969cdd03000000000000000000000000000000000000000000000000000000007bffffffffffffffffffffffffffffffffffffffffffffffffffffffff19166020820180517bffffffffffffffffffffffffffffffffffffffffffffffffffffffff8381831617835250505050612ad9565b505050565b60008151905060006a636f6e736f6c652e6c6f679050602083016000808483855afa5050505050565b505050565b6000612b288473ffffffffffffffffffffffffffffffffffffffff16612cf9565b15612c91578373ffffffffffffffffffffffffffffffffffffffff1663150b7a02612b51611f08565b8786866040518563ffffffff1660e01b8152600401612b739493929190613fd1565b602060405180830381600087803b158015612b8d57600080fd5b505af1925050508015612bbe57506040513d601f19601f82011682018060405250810190612bbb919061328c565b60015b612c41573d8060008114612bee576040519150601f19603f3d011682016040523d82523d6000602084013e612bf3565b606091505b50600081511415612c39576040517f08c379a0000000000000000000000000000000000000000000000000000000008152600401612c309061422f565b60405180910390fd5b805181602001fd5b63150b7a0260e01b7bffffffffffffffffffffffffffffffffffffffffffffffffffffffff1916817bffffffffffffffffffffffffffffffffffffffffffffffffffffffff191614915050612c96565b600190505b949350505050565b612ca88383612d0c565b612cb56000848484612b07565b612cf4576040517f08c379a0000000000000000000000000000000000000000000000000000000008152600401612ceb9061422f565b60405180910390fd5b505050565b600080823b905060008111915050919050565b600073ffffffffffffffffffffffffffffffffffffffff168273ffffffffffffffffffffffffffffffffffffffff161415612d7c576040517f08c379a0000000000000000000000000000000000000000000000000000000008152600401612d739061436f565b60405180910390fd5b612d8581611e9c565b15612dc5576040517f08c379a0000000000000000000000000000000000000000000000000000000008152600401612dbc9061426f565b60405180910390fd5b612dd160008383612b02565b6001600360008473ffffffffffffffffffffffffffffffffffffffff1673ffffffffffffffffffffffffffffffffffffffff1681526020019081526020016000206000828254612e219190614602565b92505081905550816002600083815260200190815260200160002060006101000a81548173ffffffffffffffffffffffffffffffffffffffff021916908373ffffffffffffffffffffffffffffffffffffffff160217905550808273ffffffffffffffffffffffffffffffffffffffff16600073ffffffffffffffffffffffffffffffffffffffff167fddf252ad1be2c89b69c2b068fc378daa952ba7f163c4a11628f55a4df523b3ef60405160405180910390a45050565b6040518060a0016040528060608152602001606081526020016000815260200160008152602001600081525090565b6040518060e001604052806000815260200160608152602001606081526020016000815260200160008152602001600081526020016000151581525090565b828054612f54906147cd565b90600052602060002090601f016020900481019282612f765760008555612fbd565b82601f10612f8f57805160ff1916838001178555612fbd565b82800160010185558215612fbd579182015b82811115612fbc578251825591602001919060010190612fa1565b5b509050612fca9190612fce565b5090565b5b80821115612fe7576000816000905550600101612fcf565b5090565b6000612ffe612ff984614545565b614514565b90508281526020810184848401111561301657600080fd5b61302184828561478b565b509392505050565b60008135905061303881614946565b92915050565b60008135905061304d8161495d565b92915050565b60008135905061306281614974565b92915050565b60008151905061307781614974565b92915050565b600082601f83011261308e57600080fd5b813561309e848260208601612feb565b91505092915050565b6000813590506130b68161498b565b92915050565b6000602082840312156130ce57600080fd5b60006130dc84828501613029565b91505092915050565b600080604083850312156130f857600080fd5b600061310685828601613029565b925050602061311785828601613029565b9150509250929050565b60008060006060848603121561313657600080fd5b600061314486828701613029565b935050602061315586828701613029565b9250506040613166868287016130a7565b9150509250925092565b6000806000806080858703121561318657600080fd5b600061319487828801613029565b94505060206131a587828801613029565b93505060406131b6878288016130a7565b925050606085013567ffffffffffffffff8111156131d357600080fd5b6131df8782880161307d565b91505092959194509250565b600080604083850312156131fe57600080fd5b600061320c85828601613029565b925050602061321d8582860161303e565b9150509250929050565b6000806040838503121561323a57600080fd5b600061324885828601613029565b9250506020613259858286016130a7565b9150509250929050565b60006020828403121561327557600080fd5b600061328384828501613053565b91505092915050565b60006020828403121561329e57600080fd5b60006132ac84828501613068565b91505092915050565b6000602082840312156132c757600080fd5b60006132d5848285016130a7565b91505092915050565b60006132ea8383613d73565b905092915050565b6132fb81614717565b82525050565b600061330c82614585565b61331681856145b3565b93508360208202850161332885614575565b8060005b85811015613364578484038952815161334585826132de565b9450613350836145a6565b925060208a0199505060018101905061332c565b50829750879550505050505092915050565b61337f81614729565b82525050565b61338e81614729565b82525050565b600061339f82614590565b6133a981856145c4565b93506133b981856020860161479a565b6133c281614935565b840191505092915050565b60006133d88261459b565b6133e281856145d5565b93506133f281856020860161479a565b6133fb81614935565b840191505092915050565b60006134118261459b565b61341b81856145e6565b935061342b81856020860161479a565b61343481614935565b840191505092915050565b600061344a8261459b565b61345481856145f7565b935061346481856020860161479a565b80840191505092915050565b600061347d600b836145f7565b91507f202d2d204e465420233a200000000000000000000000000000000000000000006000830152600b82019050919050565b60006134bd6032836145e6565b91507f4552433732313a207472616e7366657220746f206e6f6e20455243373231526560008301527f63656976657220696d706c656d656e74657200000000000000000000000000006020830152604082019050919050565b60006135236028836145e6565b91507f4572726f723a20626f7373206d757374206861766520485020746f206174746160008301527f636b20626f73732e0000000000000000000000000000000000000000000000006020830152604082019050919050565b6000613589601c836145e6565b91507f4552433732313a20746f6b656e20616c7265616479206d696e746564000000006000830152602082019050919050565b60006135c9600e836145f7565b91507f2c20226d61785f76616c7565223a0000000000000000000000000000000000006000830152600e82019050919050565b60006136096024836145e6565b91507f4552433732313a207472616e7366657220746f20746865207a65726f2061646460008301527f72657373000000000000000000000000000000000000000000000000000000006020830152604082019050919050565b600061366f6019836145e6565b91507f4552433732313a20617070726f766520746f2063616c6c6572000000000000006000830152602082019050919050565b60006136af602c836145e6565b91507f4552433732313a206f70657261746f7220717565727920666f72206e6f6e657860008301527f697374656e7420746f6b656e00000000000000000000000000000000000000006020830152604082019050919050565b60006137156038836145e6565b91507f4552433732313a20617070726f76652063616c6c6572206973206e6f74206f7760008301527f6e6572206e6f7220617070726f76656420666f7220616c6c00000000000000006020830152604082019050919050565b600061377b602a836145e6565b91507f4552433732313a2062616c616e636520717565727920666f7220746865207a6560008301527f726f2061646472657373000000000000000000000000000000000000000000006020830152604082019050919050565b60006137e16029836145e6565b91507f4552433732313a206f776e657220717565727920666f72206e6f6e657869737460008301527f656e7420746f6b656e00000000000000000000000000000000000000000000006020830152604082019050919050565b6000613847602d836145e6565b91507f4572726f723a20636861726163746572206d757374206861766520485020746f60008301527f2061747461636b20626f73732e000000000000000000000000000000000000006020830152604082019050919050565b60006138ad6020836145e6565b91507f4552433732313a206d696e7420746f20746865207a65726f20616464726573736000830152602082019050919050565b60006138ed602c836145e6565b91507f4552433732313a20617070726f76656420717565727920666f72206e6f6e657860008301527f697374656e7420746f6b656e00000000000000000000000000000000000000006020830152604082019050919050565b60006139536029836145e6565b91507f4552433732313a207472616e73666572206f6620746f6b656e2074686174206960008301527f73206e6f74206f776e00000000000000000000000000000000000000000000006020830152604082019050919050565b60006139b9605a836145f7565b91507f222c20226465736372697074696f6e223a20225468697320697320616e204e4660008301527f542074686174206c6574732070656f706c6520706c617920696e20746865206760208301527f616d652045636b766572736521222c2022696d616765223a20220000000000006040830152605a82019050919050565b6000613a45600a836145f7565b91507f7b226e616d65223a2022000000000000000000000000000000000000000000006000830152600a82019050919050565b6000613a856005836145f7565b91507f7d20205d7d0000000000000000000000000000000000000000000000000000006000830152600582019050919050565b6000613ac56021836145e6565b91507f4552433732313a20617070726f76616c20746f2063757272656e74206f776e6560008301527f72000000000000000000000000000000000000000000000000000000000000006020830152604082019050919050565b6000613b2b6028836145f7565b91507f7d2c207b202274726169745f74797065223a2022416e696d61746564222c202260008301527f76616c7565223a200000000000000000000000000000000000000000000000006020830152602882019050919050565b6000613b91601d836145f7565b91507f646174613a6170706c69636174696f6e2f6a736f6e3b6261736536342c0000006000830152601d82019050919050565b6000613bd16031836145e6565b91507f4552433732313a207472616e736665722063616c6c6572206973206e6f74206f60008301527f776e6572206e6f7220617070726f7665640000000000000000000000000000006020830152604082019050919050565b6000613c37603d836145f7565b91507f222c202261747472696275746573223a205b207b202274726169745f7479706560008301527f223a20224865616c746820506f696e7473222c202276616c7565223a200000006020830152603d82019050919050565b6000613c9d602d836145f7565b91507f7d2c207b202274726169745f74797065223a202241747461636b2044616d616760008301527f65222c202276616c7565223a20000000000000000000000000000000000000006020830152602d82019050919050565b600060a0830160008301518482036000860152613d1382826133cd565b91505060208301518482036020860152613d2d82826133cd565b9150506040830151613d426040860182613eb9565b506060830151613d556060860182613eb9565b506080830151613d686080860182613eb9565b508091505092915050565b600060e083016000830151613d8b6000860182613eb9565b5060208301518482036020860152613da382826133cd565b91505060408301518482036040860152613dbd82826133cd565b9150506060830151613dd26060860182613eb9565b506080830151613de56080860182613eb9565b5060a0830151613df860a0860182613eb9565b5060c0830151613e0b60c0860182613376565b508091505092915050565b600060e083016000830151613e2e6000860182613eb9565b5060208301518482036020860152613e4682826133cd565b91505060408301518482036040860152613e6082826133cd565b9150506060830151613e756060860182613eb9565b506080830151613e886080860182613eb9565b5060a0830151613e9b60a0860182613eb9565b5060c0830151613eae60c0860182613376565b508091505092915050565b613ec281614781565b82525050565b613ed181614781565b82525050565b6000613ee282613a38565b9150613eee828a61343f565b9150613ef982613470565b9150613f05828961343f565b9150613f10826139ac565b9150613f1c828861343f565b9150613f2782613c2a565b9150613f33828761343f565b9150613f3e826135bc565b9150613f4a828661343f565b9150613f5582613c90565b9150613f61828561343f565b9150613f6c82613b1e565b9150613f78828461343f565b9150613f8382613a78565b915081905098975050505050505050565b6000613f9f82613b84565b9150613fab828461343f565b915081905092915050565b6000602082019050613fcb60008301846132f2565b92915050565b6000608082019050613fe660008301876132f2565b613ff360208301866132f2565b6140006040830185613ec8565b81810360608301526140128184613394565b905095945050505050565b600060608201905061403260008301866132f2565b61403f6020830185613ec8565b61404c6040830184613ec8565b949350505050565b6000602082019050818103600083015261406e8184613301565b905092915050565b600060208201905061408b6000830184613385565b92915050565b600060208201905081810360008301526140ab8184613406565b905092915050565b600060808201905081810360008301526140cd8187613406565b905081810360208301526140e18186613406565b90506140f06040830185613ec8565b81810360608301526141028184613406565b905095945050505050565b600060808201905081810360008301526141278187613406565b9050818103602083015261413b8186613406565b905061414a6040830185613ec8565b6141576060830184613ec8565b95945050505050565b600060a082019050818103600083015261417a8188613406565b9050818103602083015261418e8187613406565b905061419d6040830186613ec8565b6141aa6060830185613ec8565b6141b76080830184613ec8565b9695505050505050565b600060408201905081810360008301526141db8185613406565b90506141ea6020830184613ec8565b9392505050565b6000606082019050818103600083015261420b8186613406565b905061421a6020830185613ec8565b6142276040830184613ec8565b949350505050565b60006020820190508181036000830152614248816134b0565b9050919050565b6000602082019050818103600083015261426881613516565b9050919050565b600060208201905081810360008301526142888161357c565b9050919050565b600060208201905081810360008301526142a8816135fc565b9050919050565b600060208201905081810360008301526142c881613662565b9050919050565b600060208201905081810360008301526142e8816136a2565b9050919050565b6000602082019050818103600083015261430881613708565b9050919050565b600060208201905081810360008301526143288161376e565b9050919050565b60006020820190508181036000830152614348816137d4565b9050919050565b600060208201905081810360008301526143688161383a565b9050919050565b60006020820190508181036000830152614388816138a0565b9050919050565b600060208201905081810360008301526143a8816138e0565b9050919050565b600060208201905081810360008301526143c881613946565b9050919050565b600060208201905081810360008301526143e881613ab8565b9050919050565b6000602082019050818103600083015261440881613bc4565b9050919050565b600060208201905081810360008301526144298184613cf6565b905092915050565b6000602082019050818103600083015261444b8184613e16565b905092915050565b60006020820190506144686000830184613ec8565b92915050565b600060e082019050614483600083018a613ec8565b81810360208301526144958189613406565b905081810360408301526144a98188613406565b90506144b86060830187613ec8565b6144c56080830186613ec8565b6144d260a0830185613ec8565b6144df60c0830184613385565b98975050505050505050565b60006040820190506145006000830185613ec8565b61450d6020830184613ec8565b9392505050565b6000604051905081810181811067ffffffffffffffff8211171561453b5761453a614906565b5b8060405250919050565b600067ffffffffffffffff8211156145605761455f614906565b5b601f19601f8301169050602081019050919050565b6000819050602082019050919050565b600081519050919050565b600081519050919050565b600081519050919050565b6000602082019050919050565b600082825260208201905092915050565b600082825260208201905092915050565b600082825260208201905092915050565b600082825260208201905092915050565b600081905092915050565b600061460d82614781565b915061461883614781565b9250827fffffffffffffffffffffffffffffffffffffffffffffffffffffffffffffffff0382111561464d5761464c614879565b5b828201905092915050565b600061466382614781565b915061466e83614781565b92508261467e5761467d6148a8565b5b828204905092915050565b600061469482614781565b915061469f83614781565b9250817fffffffffffffffffffffffffffffffffffffffffffffffffffffffffffffffff04831182151516156146d8576146d7614879565b5b828202905092915050565b60006146ee82614781565b91506146f983614781565b92508282101561470c5761470b614879565b5b828203905092915050565b600061472282614761565b9050919050565b60008115159050919050565b60007fffffffff0000000000000000000000000000000000000000000000000000000082169050919050565b600073ffffffffffffffffffffffffffffffffffffffff82169050919050565b6000819050919050565b82818337600083830152505050565b60005b838110156147b857808201518184015260208101905061479d565b838111156147c7576000848401525b50505050565b600060028204905060018216806147e557607f821691505b602082108114156147f9576147f86148d7565b5b50919050565b600061480a82614781565b91507fffffffffffffffffffffffffffffffffffffffffffffffffffffffffffffffff82141561483d5761483c614879565b5b600182019050919050565b600061485382614781565b915061485e83614781565b92508261486e5761486d6148a8565b5b828206905092915050565b7f4e487b7100000000000000000000000000000000000000000000000000000000600052601160045260246000fd5b7f4e487b7100000000000000000000000000000000000000000000000000000000600052601260045260246000fd5b7f4e487b7100000000000000000000000000000000000000000000000000000000600052602260045260246000fd5b7f4e487b7100000000000000000000000000000000000000000000000000000000600052604160045260246000fd5b6000601f19601f8301169050919050565b61494f81614717565b811461495a57600080fd5b50565b61496681614729565b811461497157600080fd5b50565b61497d81614735565b811461498857600080fd5b50565b61499481614781565b811461499f57600080fd5b5056fe506c617965722061747461636b656420626f73732e204e657720626f73732068703a2025734142434445464748494a4b4c4d4e4f505152535455565758595a6162636465666768696a6b6c6d6e6f707172737475767778797a303132333435363738392b2f426f73732061747461636b656420706c617965722e204e657720706c617965722068703a2025730a4d696e746564204e465420772f20746f6b656e496420257320616e6420636861726163746572496e6465782025730a506c6179657220772f206368617261637465722025732061626f757420746f2061747461636b2e2048617320257320485020616e64202573204144a2646970667358221220efe321762b93eaf1acea69e1b35eab064b23997164ee0469d0fdcb2cad79aa4964736f6c63430008000033446f6e6520696e697469616c697a696e6720257320772f2048502025732c20696d67202573446f6e6520696e697469616c697a696e6720626f737320257320772f2048502025732c20696d67202573",
  "linkReferences": {},
  "deployedLinkReferences": {}
}